S11380007E800C7E816A7E81747E817E347E1A50ED
S113801086FD1F8BA684811B23048601200748103C
S11380208E8032ADB6A7014D27041A0120021CFE32
S113803035FE806A806C806E807080728074807679
S11380408078807A807F80848089808B808D808F07
S113805080918093809880D480D680D880DA8108FB
S1138060815C815E8089808980894F394F394F399D
S11380704F394F394F394F394F39BDFE024F39BD52
S1138080FE054F39BDFE084F394F394F394F394F2F
S1138090394F39BD80BC4F39BD80BCBD821810AE8C
S11380A002CEFC80EC06ED045D27073702A7A05A38
S11380B020F78680B7FC80BD822E4F39BD8218EE32
S11380C002108EFC80E60527073702A7A05A20F786
S11380D0BD822E394F394F394F39BD82188629B7A1
S11380E0FD328600B7FD33BD822EBD82184FF6FCEB
S11380F0842703B6FC83ED9802CC0002ED0486804D
S1138100B7FC80BD822E4F39342410AE02EC048DAE
S11381100435244F3934363406840FC41F58585854
S113812058493406A66284708020340248ABE4487F
S1138130A7E4A66484608020ABE425098140250778
S1138140220386108C8020AA61E6623265FDFD2040
S1138150BEFD22AFA15CC50F26F335B64F394F39AA
S1138160867E97DE8E800C9FDF393440CE81ACBD95
S1138170818835C03440CE81FBBD818835C0344010
S1138180CE81FDBD818835C034531A508603BD822B
S1138190188EFC806F806F80A7806F80A6C0270731
S11381A0A7807CFC8320F5BD822E35D31107584D62
S11381B03720424F4F54204C4F41444552205631B2
S11381C02E333020414C5048410D436F7079726911
S11381D0676874204D4D49202843292041706F6CF5
S11381E06C6F2E20416C6C20726967687473207206
S11381F0657365727665642E0D0D000C00110450D4
S11382004C4541534520494E53455254204449530B
S11382104B455454452121003402B6FD052BFB8601
S113822080B7FD05121212B6FD052AFB35827FFDCB
S105823005390A
S106F17D7E800C81
S106F21F7E8108E1
S105FBFA800C79
S105FBFE816020
S105FFFEFE00FF
S9030000FC
