S113FE0020097EFE447EFE5A7EFE5A7DFD0F10CEF2
S113FE10FC7F86FD1F8B1A50BD80038603BDFF81C6
S113FE20BDFF394A2AF7BD800996182BFCBD800610
S113FE3096052BFC8EFFC7BDFE5A0F0F4F1F8B8EEE
S113FE4003006E8434244FE684C108260BA607BD44
S113FE50FF81BDFF39BDFED035A4A68481092708E2
S113FE60810A272B4F1A0139344434011A50BDFE3C
S113FE70B6BDFF6DBDFF4D86A09718961F2A0637A5
S113FE8002971B20F6482AF33501BDFEF335C4342E
S113FE904434011A50BDFEB6BDFF6DBDFF4D8680D2
S113FEA09718961F2A06961BA7C020F6482AF335F2
S113FEB001BDFEF335C4A607BDFF81A60491192731
S113FEC0028D55A606971CA605971AEE02A60739B9
S113FED034044FD6182718860AC580260E4C4CC504
S113FEE01026084CC50826034F20041A0135841C2B
S113FEF0FE358434044FD618271A860AC580261086
S113FF004CC540260B4CC51426064CC50826014C8E
S113FF101A0135841CFE35843402971B8D4F8D2DB8
S113FF20861E9718BDFFBEBDFF568D3396184D270C
S113FF30041A0135821CFE358234028D308D0E8602
S113FF400E9718BDFFBEBDFF568D14358234029640
S113FF50184425FB35823402961F482AFB35823427
S113FF60168EFFE1B6FFE0D619E786359634029681
S113FF701D8A80971D35823402961D847F971D3516
S113FF808234168EFFE1D61D34048403E686D71925
S113FF90B7FFE0E6E02A028A80971D359634028690
S113FFA0328D054A26FB3582340286148D054A2695
S113FFB0FB358234108E00FA301F26FC3590340253
S112FFC086144A26FD35820A0003000001000062
S106FFDD0D033BD2
S108FFE0000000000018
S113FFF00000000000000000000000000000FE00FF
S9030000FC
