S104D000002B
S109D00300000000000023
S104D0090022
S113D00A0000000000000000000000000000000012
S105D01A000010
S109D01F00000000000007
S113E0001A5010CED00086D01F8B8684B7D4308EA1
S113E010D000108E03F46F80313F26FA867E8ED2B4
S113E020A8A780CEEF0BEF81A780EF81CEEE88A763
S113E03080EF81CEEF04A780EF81CEEF0BA780EFB6
S113E04081CEEDE4A780EF810F0BBDE1AABDEEF711
S113E050BDE1BC0F000F090F0ABDE5641CAF7EE1F2
S104E0605368
S113E0770020E3DD292CE41F3D3FE427407FE087B0
S104E087395B
S113E1330F007FD382B6D380847FB7D380B6D40A4B
S113E143B6D3822607B6D3802BEE20F4B7D40A398C
S113E15310CED000BDE133BDE15F20F48120231C48
S113E16381292514812C231B813D250C813F231CEC
S113E17381642721817F2721BDE79A39488EE3DD16
S113E183AD96398029488EE41FAD9639803D488E7B
S113E193E427AD9639BDE79939BDD3833934306F5C
S113E1A380313F26FA35B03414030A8ED00CC610DE
S113E1B36F805A26FB0F0A359434020F210F220F66
S113E1C324032486079723CC00007DD409DD1FFD97
S10AE1D3D40E7FD40935824C
S113E3DC39E79AE42DE43FE443E62AE62EE632E6F6
S113E3EC36E63AE63EE642E646E64AE64EE79AE783
S113E3FC9AE79AE79AE79AE79AE79AE652E656E694
S113E40C5AE65EE662E666E66AE66EE672E676E68C
S113E41C7AE67EE682E6AEE6CBE6CFE6D3E71CE709
S113E42C5134065FB6D3848128270153D7247FD374
S113E43C8035867FD380398ED383E680270FA680E0
S113E44C8120250DBDE856BDE7A35A20EF7FD3806C
S113E45C393440CEE46948ADD6354020EDE4A9E426
S113E46CA9E4A9E4A9E4A9E4AAE4A9E4ABE4AFE42B
S113E47CBBE4D4E4E7E4ECE4F2E4A9E4A9E4A9E41D
S113E48CF5E4FBE509E4A9E4A9E4A9E4A9E4A9E415
S113E49CA9E4A9E523E554E558E55CE56039397D43
S113E4ACD403393402BDE7BD8620BDE85635823429
S113E4BC068620D621C4F850CB085D2709BDE85642
S113E4CCBDE7A35A20F4358634020C229622811817
S113E4DC230786189722BDE82035820F210F223995
S113E4EC8DF9BDE564390F2139A68097235A393447
S113E4FC02A6809721A6809722C00235823402346A
S113E50C04E680A6805D2709BDE856BDE7A35A2022
S113E51CF43504C00235823406A680812327138186
S113E52C2227118139270F81672713816827153515
S113E53C063920FB20F90F040F050F0720F186FF85
S113E54C970320EB0F0320E7BDE80839BDE7FB393F
S113E55CBDE7E139BDE7ED3934767FD408CEC00090
S113E56C4F5F1F011F023636363636363636363690
S113E57C3636363636361183000026EA7DD4083515
S113E58CF634367DD409108E000086081F2164846D
S113E59C640364066409640C640F6488126488154B
S113E5AC64881864881B30881E8C3E8025E01F21EB
S113E5BC308940006484640364066409640C640F49
S113E5CC64881264881564881864881B30881E8CCF
S113E5DC7E8025E01F2130898000648464036406F6
S113E5EC6409640C640F6488126488156488186464
S113E5FC881B30881E8CBE8025E04A268F31211062
S113E60C8C000323857FD40935B634308E0000107A
S113E61C8EC0007FD408BDE1A07DD40835B07FD373
S113E62C80397FD380397FD380397FD380397FD3AE
S113E63C80397FD380397FD380397FD380397FD39E
S113E64C80397FD380397FD380397FD380397FD38E
S113E65C80397FD380397FD380397FD380397FD37E
S113E66C80397FD380397FD380397FD380397FD36E
S113E67C80397FD380393416F6D3838601B7D3849B
S113E68CC5022703BDEEF79604260CC50126F87FB8
S113E69CD3847FD3832006BDEEDCB7D3837FD380B2
S113E6AC3596A68048484848108ED2C031A6E680DC
S113E6BCE7A02707A680A7A05A20F77FD380397F2D
S113E6CCD380397FD3803934560D0A26FC030A8E45
S113E6DCD380E603542404A604970B542408EE05B3
S113E6ECDF0CEE07DF0E542408EE09DF10EE0BDF0F
S113E6FC12542408EE0DDF14EE0FDF1654240AEE28
S113E70C8811DF18EE8813DF1A7FD3800F0A35D6F1
S113E71C0D0A26FC030A8ED380960BA704DE0CEF9D
S113E72C05DE0EEF07DE10EF09DE12EF0BDE14EF41
S113E73C0DDE16EF0FDE18EF8811DE1AEF88130FBB
S113E74C0A7FD3803934128ED38BA6808190271301
S113E75C8191271481922727819327278670B7D319
S113E76C8035927FD38035923410EE8410AE02AE95
S113E77C043702A7A0301F26F83510300620CBAE84
S113E78C8420C7343FAD94353F300220BD39340268
S113E79C8646B7D3803582340286280D2427014857
S113E7AC34020C219621A1E025050F21BDE4D435BA
S113E7BC8234069622D62110830000271686280D53
S113E7CC242701484A0A21240A97210A2224048670
S113E7DC189722358634020A222604861897223585
S113E7EC8234020C229622811823020F22358234A1
S113E7FC020A212605BDE817972135823402BDE8AB
S113E80C170C21912123020F21358286280D2427F0
S113E81C01484A3934368E3C00108E02802009346B
S113E82C368E3B60108E03207DD409DC1FC302801E
S113E83CDD1FFDD40E6F846F8940006F898000301A
S113E84C01313F26F07FD40935B63476BDE8CC1FB0
S113E85C13BDE8D8108E00080D24270D37028D2423
S113E86C308850313F26F535F637028D401E898DA0
S113E87C131E898D381E8930018D0930884F313F24
S113E88C26E735F634046F846F8940006F89800065
S113E89CD6237DD409542402A784542404A7894084
S113E8AC00542404A78980007FD409358434108E45
S113E8BC00045F5858482402CA03301F26F53590CB
S113E8CC3406C6083DC3D8001F013586340696228B
S113E8DC484848C6503D1F0196210D242601483056
S106E8EC863586E4
S113EDE3390D0A1026009B86FF970A0C0F960F8194
S113EDF332252C0F0F0C0E960E813C25220F0E0C80
S113EE030D960D813C25180F0D0C0C960C811825BD
S113EE130E0F0C960B8508270696098A409709DC82
S113EE230C1093102613DC0E109312260C960B85EC
S113EE3301270696098A1097090A172A1686319715
S113EE43170A162A0E863B97160A152A06863B9737
S113EE53150A14DC14261CDC162618DC18DD14DC55
S113EE631ADD16960B8506270A84FB970B96098AE7
S113EE732097099609270BBAD381B7D3810F097D4C
S113EE83D4040F0A3B3406FCD4004D2B081F98BD51
S113EE93EEB935063BC47FF7D38134108ED2C05804
S113EEA35858583AE6802707A6808D0A5A20F73522
S113EEB3107DD40420DC3414D60326028D36D60404
S113EEC3C12024135CD7049E07A78430018CD3800C
S113EED325038ED3609F0735943410960427134A71
S113EEE397049E05A68430018CD38025038ED360BA
S113EEF39F05359034120F048ED3609F079F053509
S10CEF03927DD40286FF97003BC5
S113FFF00000D2A8D2ABD2AED2B1D2B4D2B7E00014
S903E0001C
