S104D000002B
S109D00300000000000023
S104D0090022
S113D00A0000000000000000000000000000000012
S105D01A000010
S109D01F00000000000007
S113E0001A5010CED00086D01F8B8ED000108E03F5
S113E010F46F80313F26FA0F0BBDE1AABDEEF7BDC8
S113E020E1BC0F000F090F0ABDE5671CAF7EE15389
S113E0770020E3DD292CE41F3D3FE427407FE087B0
S104E087395B
S113E1330F007FD382B6D380847FB7D380B6D40A4B
S113E143B6D3822607B6D3802BEE20F4B7D40A398C
S113E15310CED000BDE133BDE15F20F48120231C48
S113E16381292514812C231B813D250C813F231CEC
S113E17381642721817F2721BDE79D39488EE3DD13
S113E183AD96398029488EE41FAD9639803D488E7B
S113E193E427AD9639BDE79C39BDD3833934306F59
S113E1A380313F26FA35B03414030A8ED00CC610DE
S113E1B36F805A26FB0F0A359434020F210F220F66
S113E1C324032486079723CC00007DD409DD1FFD97
S10AE1D3D40E7FD40935824C
S113E3DC39E79DE42DE43FE443E62DE631E635E6EA
S113E3EC39E63DE641E645E649E64DE651E79DE76B
S113E3FC9DE79DE79DE79DE79DE79DE655E659E67C
S113E40C5DE661E665E669E66DE671E675E679E674
S113E41C7DE681E685E6B1E6CEE6D2E6D6E71FE7F1
S113E42C5434065FB6D3848128270153D7247FD371
S113E43C8035867FD380398ED383E680270FA680E0
S113E44C8120250DBDE859BDE7A65A20EF7FD38066
S113E45C393440CEE46948ADD6354020EDE4A9E426
S113E46CA9E4A9E4A9E4A9E4AAE4A9E4ABE4AFE42B
S113E47CBBE4D4E4E7E4ECE4F2E4A9E4A9E4A9E41D
S113E48CF8E4FEE50CE4A9E4A9E4A9E4A9E4A9E40C
S113E49CA9E4A9E526E557E55BE55FE56339397D34
S113E4ACD403393402BDE7C08620BDE85935823423
S113E4BC068620D621C4F850CB085D2709BDE8593F
S113E4CCBDE7A65A20F4358634020C229622811814
S113E4DC230786189722BDE82335820F210F223992
S113E4EC8DF9BDE567390F21BDE4D439A680972396
S113E4FC5A393402A6809721A6809722C00235820D
S113E50C34023404E680A6805D2709BDE859BDE7D2
S113E51CA65A20F43504C00235823406A680812321
S113E52C2713812227118139270F816727138168CB
S113E53C271535063920FB20F90F040F050F07208A
S113E54CF186FF970320EB0F0320E7BDE80B39BDE1
S113E55CE7FE39BDE7E439BDE7F03934767FD408FA
S113E56CCEC0004F5F1F011F0236363636363636A4
S113E57C3636363636363636361183000026EA7D84
S113E58CD40835F634367DD409108E000086081F65
S113E59C216484640364066409640C640F64881243
S113E5AC64881564881864881B30881E8C3E80250A
S113E5BCE01F2130894000648464036406640964A8
S113E5CC0C640F64881264881564881864881B3082
S113E5DC881E8C7E8025E01F213089800064846431
S113E5EC0364066409640C640F64881264881564FB
S113E5FC881864881B30881E8CBE8025E04A268FC0
S113E60C3121108C000323857FD40935B634308E28
S113E61C0000108EC0007FD408BDE1A07DD4083565
S113E62CB07FD380397FD380397FD380397FD38037
S113E63C397FD380397FD380397FD380397FD3809E
S113E64C397FD380397FD380397FD380397FD3808E
S113E65C397FD380397FD380397FD380397FD3807E
S113E66C397FD380397FD380397FD380397FD3806E
S113E67C397FD380397FD380393416F6D38386011E
S113E68CB7D384C5022703BDEEF79604260CC50147
S113E69C26F87FD3847FD3832006BDEEDCB7D383E7
S113E6AC7FD3803596A68048484848108ED2C03116
S113E6BCA6E680E7A02707A680A7A05A20F77FD359
S113E6CC80397FD380397FD3803934560D0A26FCA8
S113E6DC030A8ED380E603542404A604970B542413
S113E6EC08EE05DF0CEE07DF0E542408EE09DF10EC
S113E6FCEE0BDF12542408EE0DDF14EE0FDF16546C
S113E70C240AEE8811DF18EE8813DF1A7FD3800FEA
S113E71C0A35D60D0A26FC030A8ED380960BA70461
S113E72CDE0CEF05DE0EEF07DE10EF09DE12EF0B49
S113E73CDE14EF0DDE16EF0FDE18EF8811DE1AEF84
S113E74C88130F0A7FD3803934128ED38BA6808121
S113E75C9027138191271481922727819327278649
S113E76C70B7D38035927FD38035923410EE8410F9
S113E77CAE02AE043702A7A0301F26F835103006BF
S113E78C20CBAE8420C7343FAD94353F300220BD3E
S113E79C3934028646B7D3803582340286280D2458
S113E7AC27014834020C219621A1E025050F21BD37
S113E7BCE4D4358234069622D62110830000271621
S113E7CC86280D242701484A0A21240A97210A2263
S113E7DC240486189722358634020A2226048618C5
S113E7EC9722358234020C229622811823020F229E
S113E7FC358234020A212605BDE81A972135823464
S113E80C02BDE81A0C21912123020F21358286289E
S113E81C0D242701484A3934368E3C00108E028070
S113E82C200934368E3B60108E03207DD409DC1F06
S113E83CC30280DD1FFDD40E6F846F8940006F8985
S113E84C80003001313F26F07FD40935B63476BDD3
S113E85CE8CF1F13BDE8DB108E00080D24270D37FD
S113E86C028D24308850313F26F535F637028D4021
S113E87C1E898D131E898D381E8930018D093088AF
S113E88C4F313F26E735F634046F846F8940006FAF
S113E89C898000D6237DD409542402A784542404EB
S113E8ACA7894000542404A78980007FD4093584A7
S113E8BC34108E00045F5858482402CA03301F26B3
S113E8CCF535903406C6083DC3D8001F013586348F
S113E8DC069622484848C6503D1F0196210D242611
S109E8EC01483086358668
S113EDE3390D0A1026009B86FF970A0C0F960F8194
S113EDF332252C0F0F0C0E960E813C25220F0E0C80
S113EE030D960D813C25180F0D0C0C960C811825BD
S113EE130E0F0C960B8508270696098A409709DC82
S113EE230C1093102613DC0E109312260C960B85EC
S113EE3301270696098A1097090A172A1686319715
S113EE43170A162A0E863B97160A152A06863B9737
S113EE53150A14DC14261CDC162618DC18DD14DC55
S113EE631ADD16960B8506270A84FB970B96098AE7
S113EE732097099609270BBAD381B7D3810F097D4C
S113EE83D4040F0A3B3406FCD4004D2B081F98BD51
S113EE93EEB935063BC47FF7D38134108ED2C05804
S113EEA35858583AE6802707A6808D0A5A20F73522
S113EEB3107DD40420DC3414D60326028D36D60404
S113EEC3C12024135CD7049E07A78430018CD3800C
S113EED325038ED3609F0735943410960427134A71
S113EEE397049E05A68430018CD38025038ED360BA
S113EEF39F05359034120F048ED3609F079F053509
S10CEF03927DD40286FF97003BC5
S113FFF00000E000E000EE88EF04E000EDE4E00043
S903E0001C
